{
  "contractName": "CustomERC20Token",
  "abi": [
    {
      "constant": true,
      "inputs": [],
      "name": "name",
      "outputs": [
        {
          "name": "",
          "type": "string"
        }
      ],
      "payable": false,
      "stateMutability": "view",
      "type": "function"
    },
    {
      "constant": false,
      "inputs": [
        {
          "name": "_spender",
          "type": "address"
        },
        {
          "name": "_value",
          "type": "uint256"
        }
      ],
      "name": "approve",
      "outputs": [
        {
          "name": "",
          "type": "bool"
        }
      ],
      "payable": false,
      "stateMutability": "nonpayable",
      "type": "function"
    },
    {
      "constant": true,
      "inputs": [],
      "name": "totalSupply",
      "outputs": [
        {
          "name": "",
          "type": "uint256"
        }
      ],
      "payable": false,
      "stateMutability": "view",
      "type": "function"
    },
    {
      "constant": false,
      "inputs": [
        {
          "name": "_from",
          "type": "address"
        },
        {
          "name": "_to",
          "type": "address"
        },
        {
          "name": "_value",
          "type": "uint256"
        }
      ],
      "name": "transferFrom",
      "outputs": [
        {
          "name": "",
          "type": "bool"
        }
      ],
      "payable": false,
      "stateMutability": "nonpayable",
      "type": "function"
    },
    {
      "constant": true,
      "inputs": [],
      "name": "decimals",
      "outputs": [
        {
          "name": "",
          "type": "uint8"
        }
      ],
      "payable": false,
      "stateMutability": "view",
      "type": "function"
    },
    {
      "constant": true,
      "inputs": [],
      "name": "supplier",
      "outputs": [
        {
          "name": "",
          "type": "address"
        }
      ],
      "payable": false,
      "stateMutability": "view",
      "type": "function"
    },
    {
      "constant": false,
      "inputs": [
        {
          "name": "_value",
          "type": "uint256"
        }
      ],
      "name": "burn",
      "outputs": [],
      "payable": false,
      "stateMutability": "nonpayable",
      "type": "function"
    },
    {
      "constant": false,
      "inputs": [
        {
          "name": "_spender",
          "type": "address"
        },
        {
          "name": "_subtractedValue",
          "type": "uint256"
        }
      ],
      "name": "decreaseApproval",
      "outputs": [
        {
          "name": "",
          "type": "bool"
        }
      ],
      "payable": false,
      "stateMutability": "nonpayable",
      "type": "function"
    },
    {
      "constant": true,
      "inputs": [
        {
          "name": "_owner",
          "type": "address"
        }
      ],
      "name": "balanceOf",
      "outputs": [
        {
          "name": "",
          "type": "uint256"
        }
      ],
      "payable": false,
      "stateMutability": "view",
      "type": "function"
    },
    {
      "constant": true,
      "inputs": [],
      "name": "symbol",
      "outputs": [
        {
          "name": "",
          "type": "string"
        }
      ],
      "payable": false,
      "stateMutability": "view",
      "type": "function"
    },
    {
      "constant": false,
      "inputs": [
        {
          "name": "_to",
          "type": "address"
        },
        {
          "name": "_value",
          "type": "uint256"
        }
      ],
      "name": "transfer",
      "outputs": [
        {
          "name": "",
          "type": "bool"
        }
      ],
      "payable": false,
      "stateMutability": "nonpayable",
      "type": "function"
    },
    {
      "constant": false,
      "inputs": [
        {
          "name": "_spender",
          "type": "address"
        },
        {
          "name": "_addedValue",
          "type": "uint256"
        }
      ],
      "name": "increaseApproval",
      "outputs": [
        {
          "name": "",
          "type": "bool"
        }
      ],
      "payable": false,
      "stateMutability": "nonpayable",
      "type": "function"
    },
    {
      "constant": true,
      "inputs": [
        {
          "name": "_owner",
          "type": "address"
        },
        {
          "name": "_spender",
          "type": "address"
        }
      ],
      "name": "allowance",
      "outputs": [
        {
          "name": "",
          "type": "uint256"
        }
      ],
      "payable": false,
      "stateMutability": "view",
      "type": "function"
    },
    {
      "inputs": [
        {
          "name": "_name",
          "type": "string"
        },
        {
          "name": "_symbol",
          "type": "string"
        },
        {
          "name": "_decimals",
          "type": "uint8"
        },
        {
          "name": "_totalSupply",
          "type": "uint256"
        }
      ],
      "payable": false,
      "stateMutability": "nonpayable",
      "type": "constructor"
    },
    {
      "anonymous": false,
      "inputs": [
        {
          "indexed": true,
          "name": "burner",
          "type": "address"
        },
        {
          "indexed": false,
          "name": "value",
          "type": "uint256"
        }
      ],
      "name": "Burn",
      "type": "event"
    },
    {
      "anonymous": false,
      "inputs": [
        {
          "indexed": true,
          "name": "owner",
          "type": "address"
        },
        {
          "indexed": true,
          "name": "spender",
          "type": "address"
        },
        {
          "indexed": false,
          "name": "value",
          "type": "uint256"
        }
      ],
      "name": "Approval",
      "type": "event"
    },
    {
      "anonymous": false,
      "inputs": [
        {
          "indexed": true,
          "name": "from",
          "type": "address"
        },
        {
          "indexed": true,
          "name": "to",
          "type": "address"
        },
        {
          "indexed": false,
          "name": "value",
          "type": "uint256"
        }
      ],
      "name": "Transfer",
      "type": "event"
    }
  ],
  "bytecode": "0x608060405234801561001057600080fd5b50604051610b7c380380610b7c8339810160409081528151602080840151928401516060850151928501805190959490940193909291610055916003918701906100bf565b5082516100699060049060208601906100bf565b506005805460ff191660ff939093169290921761010060a860020a03191661010033810291909117928390556001829055600160a060020a039204919091166000908152602081905260409020555061015a9050565b828054600181600116156101000203166002900490600052602060002090601f016020900481019282601f1061010057805160ff191683800117855561012d565b8280016001018555821561012d579182015b8281111561012d578251825591602001919060010190610112565b5061013992915061013d565b5090565b61015791905b808211156101395760008155600101610143565b90565b610a13806101696000396000f3006080604052600436106100c45763ffffffff7c010000000000000000000000000000000000000000000000000000000060003504166306fdde0381146100c9578063095ea7b31461015357806318160ddd1461018b57806323b872dd146101b2578063313ce567146101dc57806336da44681461020757806342966c6814610238578063661884631461025257806370a082311461027657806395d89b4114610297578063a9059cbb146102ac578063d73dd623146102d0578063dd62ed3e146102f4575b600080fd5b3480156100d557600080fd5b506100de61031b565b6040805160208082528351818301528351919283929083019185019080838360005b83811015610118578181015183820152602001610100565b50505050905090810190601f1680156101455780820380516001836020036101000a031916815260200191505b509250505060405180910390f35b34801561015f57600080fd5b50610177600160a060020a03600435166024356103a9565b604080519115158252519081900360200190f35b34801561019757600080fd5b506101a061040f565b60408051918252519081900360200190f35b3480156101be57600080fd5b50610177600160a060020a0360043581169060243516604435610415565b3480156101e857600080fd5b506101f161058c565b6040805160ff9092168252519081900360200190f35b34801561021357600080fd5b5061021c610595565b60408051600160a060020a039092168252519081900360200190f35b34801561024457600080fd5b506102506004356105a9565b005b34801561025e57600080fd5b50610177600160a060020a03600435166024356105b6565b34801561028257600080fd5b506101a0600160a060020a03600435166106a6565b3480156102a357600080fd5b506100de6106c1565b3480156102b857600080fd5b50610177600160a060020a036004351660243561071c565b3480156102dc57600080fd5b50610177600160a060020a03600435166024356107fd565b34801561030057600080fd5b506101a0600160a060020a0360043581169060243516610896565b6003805460408051602060026001851615610100026000190190941693909304601f810184900484028201840190925281815292918301828280156103a15780601f10610376576101008083540402835291602001916103a1565b820191906000526020600020905b81548152906001019060200180831161038457829003601f168201915b505050505081565b336000818152600260209081526040808320600160a060020a038716808552908352818420869055815186815291519394909390927f8c5be1e5ebec7d5bd14f71427d1e84f3dd0314c0f7b2291e5b200ac8c7c3b925928290030190a350600192915050565b60015490565b6000600160a060020a038316151561042c57600080fd5b600160a060020a03841660009081526020819052604090205482111561045157600080fd5b600160a060020a038416600090815260026020908152604080832033845290915290205482111561048157600080fd5b600160a060020a0384166000908152602081905260409020546104aa908363ffffffff6108c116565b600160a060020a0380861660009081526020819052604080822093909355908516815220546104df908363ffffffff6108d316565b600160a060020a03808516600090815260208181526040808320949094559187168152600282528281203382529091522054610521908363ffffffff6108c116565b600160a060020a03808616600081815260026020908152604080832033845282529182902094909455805186815290519287169391927fddf252ad1be2c89b69c2b068fc378daa952ba7f163c4a11628f55a4df523b3ef929181900390910190a35060019392505050565b60055460ff1681565b6005546101009004600160a060020a031681565b6105b333826108e6565b50565b336000908152600260209081526040808320600160a060020a03861684529091528120548083111561060b57336000908152600260209081526040808320600160a060020a0388168452909152812055610640565b61061b818463ffffffff6108c116565b336000908152600260209081526040808320600160a060020a03891684529091529020555b336000818152600260209081526040808320600160a060020a0389168085529083529281902054815190815290519293927f8c5be1e5ebec7d5bd14f71427d1e84f3dd0314c0f7b2291e5b200ac8c7c3b925929181900390910190a35060019392505050565b600160a060020a031660009081526020819052604090205490565b6004805460408051602060026001851615610100026000190190941693909304601f810184900484028201840190925281815292918301828280156103a15780601f10610376576101008083540402835291602001916103a1565b6000600160a060020a038316151561073357600080fd5b3360009081526020819052604090205482111561074f57600080fd5b3360009081526020819052604090205461076f908363ffffffff6108c116565b3360009081526020819052604080822092909255600160a060020a038516815220546107a1908363ffffffff6108d316565b600160a060020a038416600081815260208181526040918290209390935580518581529051919233927fddf252ad1be2c89b69c2b068fc378daa952ba7f163c4a11628f55a4df523b3ef9281900390910190a350600192915050565b336000908152600260209081526040808320600160a060020a0386168452909152812054610831908363ffffffff6108d316565b336000818152600260209081526040808320600160a060020a0389168085529083529281902085905580519485525191937f8c5be1e5ebec7d5bd14f71427d1e84f3dd0314c0f7b2291e5b200ac8c7c3b925929081900390910190a350600192915050565b600160a060020a03918216600090815260026020908152604080832093909416825291909152205490565b6000828211156108cd57fe5b50900390565b818101828110156108e057fe5b92915050565b600160a060020a03821660009081526020819052604090205481111561090b57600080fd5b600160a060020a038216600090815260208190526040902054610934908263ffffffff6108c116565b600160a060020a038316600090815260208190526040902055600154610960908263ffffffff6108c116565b600155604080518281529051600160a060020a038416917fcc16f5dbb4873280815c1ee09dbd06736cffcc184412cf7a71a0fdb75d397ca5919081900360200190a2604080518281529051600091600160a060020a038516917fddf252ad1be2c89b69c2b068fc378daa952ba7f163c4a11628f55a4df523b3ef9181900360200190a350505600a165627a7a7230582007b3199cc7a7ee08265f6504b0035eaafd9864010636b7bd77d89f154f16d1310029",
  "source": "pragma solidity 0.4.24;\n\nimport \"openzeppelin-solidity/contracts/token/ERC20/StandardToken.sol\";\nimport \"openzeppelin-solidity/contracts/token/ERC20/BurnableToken.sol\";\n\n\ncontract CustomERC20Token is StandardToken, BurnableToken {\n  string public name;\n  string public symbol;\n  uint8 public decimals;\n  address public supplier;\n\n  constructor(string _name, string _symbol, uint8 _decimals, uint256 _totalSupply) public {\n    name = _name;\n    symbol = _symbol;\n    decimals = _decimals;\n    supplier = msg.sender;\n\n    totalSupply_ = _totalSupply;\n    balances[supplier] = totalSupply_;\n  }\n}",
  "sourcePath": "/mnt/c/Users/stive/Documents/work/tsg/dubiex-contracts/contracts/erc20/CustomERC20Token.sol",
  "compiler": {
    "name": "solc",
    "version": "0.4.24+commit.e67f0147.Emscripten.clang"
  },
  "schemaVersion": "2.0.1",
  "updatedAt": "2018-08-01T21:00:29.111Z"
}