{
  "contractName": "CustomERC721Token",
  "abi": [
    {
      "constant": true,
      "inputs": [
        {
          "name": "_interfaceId",
          "type": "bytes4"
        }
      ],
      "name": "supportsInterface",
      "outputs": [
        {
          "name": "",
          "type": "bool"
        }
      ],
      "payable": false,
      "stateMutability": "view",
      "type": "function"
    },
    {
      "constant": true,
      "inputs": [],
      "name": "name",
      "outputs": [
        {
          "name": "",
          "type": "string"
        }
      ],
      "payable": false,
      "stateMutability": "view",
      "type": "function"
    },
    {
      "constant": true,
      "inputs": [
        {
          "name": "_tokenId",
          "type": "uint256"
        }
      ],
      "name": "getApproved",
      "outputs": [
        {
          "name": "",
          "type": "address"
        }
      ],
      "payable": false,
      "stateMutability": "view",
      "type": "function"
    },
    {
      "constant": false,
      "inputs": [
        {
          "name": "_to",
          "type": "address"
        },
        {
          "name": "_tokenId",
          "type": "uint256"
        }
      ],
      "name": "approve",
      "outputs": [],
      "payable": false,
      "stateMutability": "nonpayable",
      "type": "function"
    },
    {
      "constant": true,
      "inputs": [],
      "name": "totalSupply",
      "outputs": [
        {
          "name": "",
          "type": "uint256"
        }
      ],
      "payable": false,
      "stateMutability": "view",
      "type": "function"
    },
    {
      "constant": true,
      "inputs": [],
      "name": "InterfaceId_ERC165",
      "outputs": [
        {
          "name": "",
          "type": "bytes4"
        }
      ],
      "payable": false,
      "stateMutability": "view",
      "type": "function"
    },
    {
      "constant": false,
      "inputs": [
        {
          "name": "_from",
          "type": "address"
        },
        {
          "name": "_to",
          "type": "address"
        },
        {
          "name": "_tokenId",
          "type": "uint256"
        }
      ],
      "name": "transferFrom",
      "outputs": [],
      "payable": false,
      "stateMutability": "nonpayable",
      "type": "function"
    },
    {
      "constant": true,
      "inputs": [
        {
          "name": "_owner",
          "type": "address"
        },
        {
          "name": "_index",
          "type": "uint256"
        }
      ],
      "name": "tokenOfOwnerByIndex",
      "outputs": [
        {
          "name": "",
          "type": "uint256"
        }
      ],
      "payable": false,
      "stateMutability": "view",
      "type": "function"
    },
    {
      "constant": false,
      "inputs": [
        {
          "name": "_from",
          "type": "address"
        },
        {
          "name": "_to",
          "type": "address"
        },
        {
          "name": "_tokenId",
          "type": "uint256"
        }
      ],
      "name": "safeTransferFrom",
      "outputs": [],
      "payable": false,
      "stateMutability": "nonpayable",
      "type": "function"
    },
    {
      "constant": true,
      "inputs": [
        {
          "name": "_tokenId",
          "type": "uint256"
        }
      ],
      "name": "exists",
      "outputs": [
        {
          "name": "",
          "type": "bool"
        }
      ],
      "payable": false,
      "stateMutability": "view",
      "type": "function"
    },
    {
      "constant": true,
      "inputs": [
        {
          "name": "_index",
          "type": "uint256"
        }
      ],
      "name": "tokenByIndex",
      "outputs": [
        {
          "name": "",
          "type": "uint256"
        }
      ],
      "payable": false,
      "stateMutability": "view",
      "type": "function"
    },
    {
      "constant": true,
      "inputs": [
        {
          "name": "_tokenId",
          "type": "uint256"
        }
      ],
      "name": "ownerOf",
      "outputs": [
        {
          "name": "",
          "type": "address"
        }
      ],
      "payable": false,
      "stateMutability": "view",
      "type": "function"
    },
    {
      "constant": true,
      "inputs": [
        {
          "name": "_owner",
          "type": "address"
        }
      ],
      "name": "balanceOf",
      "outputs": [
        {
          "name": "",
          "type": "uint256"
        }
      ],
      "payable": false,
      "stateMutability": "view",
      "type": "function"
    },
    {
      "constant": false,
      "inputs": [],
      "name": "renounceOwnership",
      "outputs": [],
      "payable": false,
      "stateMutability": "nonpayable",
      "type": "function"
    },
    {
      "constant": true,
      "inputs": [],
      "name": "owner",
      "outputs": [
        {
          "name": "",
          "type": "address"
        }
      ],
      "payable": false,
      "stateMutability": "view",
      "type": "function"
    },
    {
      "constant": true,
      "inputs": [],
      "name": "symbol",
      "outputs": [
        {
          "name": "",
          "type": "string"
        }
      ],
      "payable": false,
      "stateMutability": "view",
      "type": "function"
    },
    {
      "constant": false,
      "inputs": [
        {
          "name": "_to",
          "type": "address"
        },
        {
          "name": "_approved",
          "type": "bool"
        }
      ],
      "name": "setApprovalForAll",
      "outputs": [],
      "payable": false,
      "stateMutability": "nonpayable",
      "type": "function"
    },
    {
      "constant": false,
      "inputs": [
        {
          "name": "_from",
          "type": "address"
        },
        {
          "name": "_to",
          "type": "address"
        },
        {
          "name": "_tokenId",
          "type": "uint256"
        },
        {
          "name": "_data",
          "type": "bytes"
        }
      ],
      "name": "safeTransferFrom",
      "outputs": [],
      "payable": false,
      "stateMutability": "nonpayable",
      "type": "function"
    },
    {
      "constant": true,
      "inputs": [
        {
          "name": "_tokenId",
          "type": "uint256"
        }
      ],
      "name": "tokenURI",
      "outputs": [
        {
          "name": "",
          "type": "string"
        }
      ],
      "payable": false,
      "stateMutability": "view",
      "type": "function"
    },
    {
      "constant": true,
      "inputs": [
        {
          "name": "_owner",
          "type": "address"
        },
        {
          "name": "_operator",
          "type": "address"
        }
      ],
      "name": "isApprovedForAll",
      "outputs": [
        {
          "name": "",
          "type": "bool"
        }
      ],
      "payable": false,
      "stateMutability": "view",
      "type": "function"
    },
    {
      "constant": false,
      "inputs": [
        {
          "name": "_newOwner",
          "type": "address"
        }
      ],
      "name": "transferOwnership",
      "outputs": [],
      "payable": false,
      "stateMutability": "nonpayable",
      "type": "function"
    },
    {
      "inputs": [
        {
          "name": "_name",
          "type": "string"
        },
        {
          "name": "_symbol",
          "type": "string"
        }
      ],
      "payable": false,
      "stateMutability": "nonpayable",
      "type": "constructor"
    },
    {
      "anonymous": false,
      "inputs": [
        {
          "indexed": true,
          "name": "previousOwner",
          "type": "address"
        }
      ],
      "name": "OwnershipRenounced",
      "type": "event"
    },
    {
      "anonymous": false,
      "inputs": [
        {
          "indexed": true,
          "name": "previousOwner",
          "type": "address"
        },
        {
          "indexed": true,
          "name": "newOwner",
          "type": "address"
        }
      ],
      "name": "OwnershipTransferred",
      "type": "event"
    },
    {
      "anonymous": false,
      "inputs": [
        {
          "indexed": true,
          "name": "_from",
          "type": "address"
        },
        {
          "indexed": true,
          "name": "_to",
          "type": "address"
        },
        {
          "indexed": true,
          "name": "_tokenId",
          "type": "uint256"
        }
      ],
      "name": "Transfer",
      "type": "event"
    },
    {
      "anonymous": false,
      "inputs": [
        {
          "indexed": true,
          "name": "_owner",
          "type": "address"
        },
        {
          "indexed": true,
          "name": "_approved",
          "type": "address"
        },
        {
          "indexed": true,
          "name": "_tokenId",
          "type": "uint256"
        }
      ],
      "name": "Approval",
      "type": "event"
    },
    {
      "anonymous": false,
      "inputs": [
        {
          "indexed": true,
          "name": "_owner",
          "type": "address"
        },
        {
          "indexed": true,
          "name": "_operator",
          "type": "address"
        },
        {
          "indexed": false,
          "name": "_approved",
          "type": "bool"
        }
      ],
      "name": "ApprovalForAll",
      "type": "event"
    },
    {
      "constant": false,
      "inputs": [
        {
          "name": "to",
          "type": "address"
        },
        {
          "name": "tokenId",
          "type": "uint256"
        }
      ],
      "name": "mint",
      "outputs": [],
      "payable": false,
      "stateMutability": "nonpayable",
      "type": "function"
    }
  ],
  "bytecode": "0x60806040523480156200001157600080fd5b506040516200147738038062001477833981016040528051602082015190820191018181620000697f01ffc9a70000000000000000000000000000000000000000000000000000000064010000000062000182810204565b6200009d7f80ac58cd0000000000000000000000000000000000000000000000000000000064010000000062000182810204565b620000d17f4f558e790000000000000000000000000000000000000000000000000000000064010000000062000182810204565b8151620000e6906005906020850190620001ef565b508051620000fc906006906020840190620001ef565b50620001317f780e9d630000000000000000000000000000000000000000000000000000000064010000000062000182810204565b620001657f5b5e139f0000000000000000000000000000000000000000000000000000000064010000000062000182810204565b5050600c8054600160a060020a0319163317905550620002949050565b7fffffffff000000000000000000000000000000000000000000000000000000008082161415620001b257600080fd5b7fffffffff00000000000000000000000000000000000000000000000000000000166000908152602081905260409020805460ff19166001179055565b828054600181600116156101000203166002900490600052602060002090601f016020900481019282601f106200023257805160ff191683800117855562000262565b8280016001018555821562000262579182015b828111156200026257825182559160200191906001019062000245565b506200027092915062000274565b5090565b6200029191905b808211156200027057600081556001016200027b565b90565b6111d380620002a46000396000f3006080604052600436106101275763ffffffff7c010000000000000000000000000000000000000000000000000000000060003504166301ffc9a7811461012c57806306fdde0314610162578063081812fc146101ec578063095ea7b31461022057806318160ddd1461024657806319fa8f501461026d57806323b872dd1461029f5780632f745c59146102c957806340c10f19146102ed57806342842e0e146103115780634f558e791461033b5780634f6ccce7146103535780636352211e1461036b57806370a0823114610383578063715018a6146103a45780638da5cb5b146103b957806395d89b41146103ce578063a22cb465146103e3578063b88d4fde14610409578063c87b56dd14610478578063e985e9c514610490578063f2fde38b146104b7575b600080fd5b34801561013857600080fd5b5061014e600160e060020a0319600435166104d8565b604080519115158252519081900360200190f35b34801561016e57600080fd5b506101776104f7565b6040805160208082528351818301528351919283929083019185019080838360005b838110156101b1578181015183820152602001610199565b50505050905090810190601f1680156101de5780820380516001836020036101000a031916815260200191505b509250505060405180910390f35b3480156101f857600080fd5b5061020460043561058e565b60408051600160a060020a039092168252519081900360200190f35b34801561022c57600080fd5b50610244600160a060020a03600435166024356105a9565b005b34801561025257600080fd5b5061025b61065f565b60408051918252519081900360200190f35b34801561027957600080fd5b50610282610665565b60408051600160e060020a03199092168252519081900360200190f35b3480156102ab57600080fd5b50610244600160a060020a0360043581169060243516604435610689565b3480156102d557600080fd5b5061025b600160a060020a036004351660243561072e565b3480156102f957600080fd5b50610244600160a060020a036004351660243561077b565b34801561031d57600080fd5b50610244600160a060020a03600435811690602435166044356107a0565b34801561034757600080fd5b5061014e6004356107d8565b34801561035f57600080fd5b5061025b6004356107f5565b34801561037757600080fd5b5061020460043561082a565b34801561038f57600080fd5b5061025b600160a060020a0360043516610854565b3480156103b057600080fd5b50610244610887565b3480156103c557600080fd5b506102046108f5565b3480156103da57600080fd5b50610177610904565b3480156103ef57600080fd5b50610244600160a060020a03600435166024351515610965565b34801561041557600080fd5b50604080516020601f60643560048181013592830184900484028501840190955281845261024494600160a060020a0381358116956024803590921695604435953695608494019181908401838280828437509497506109e99650505050505050565b34801561048457600080fd5b50610177600435610a28565b34801561049c57600080fd5b5061014e600160a060020a0360043581169060243516610add565b3480156104c357600080fd5b50610244600160a060020a0360043516610b0b565b600160e060020a03191660009081526020819052604090205460ff1690565b60058054604080516020601f60026000196101006001881615020190951694909404938401819004810282018101909252828152606093909290918301828280156105835780601f1061055857610100808354040283529160200191610583565b820191906000526020600020905b81548152906001019060200180831161056657829003601f168201915b505050505090505b90565b600090815260026020526040902054600160a060020a031690565b60006105b48261082a565b9050600160a060020a0383811690821614156105cf57600080fd5b33600160a060020a03821614806105eb57506105eb8133610add565b15156105f657600080fd5b600082815260026020526040808220805473ffffffffffffffffffffffffffffffffffffffff1916600160a060020a0387811691821790925591518593918516917f8c5be1e5ebec7d5bd14f71427d1e84f3dd0314c0f7b2291e5b200ac8c7c3b92591a4505050565b60095490565b7f01ffc9a70000000000000000000000000000000000000000000000000000000081565b806106943382610b2e565b151561069f57600080fd5b600160a060020a03841615156106b457600080fd5b600160a060020a03831615156106c957600080fd5b6106d38483610b8d565b6106dd8483610bfc565b6106e78383610d35565b8183600160a060020a031685600160a060020a03167fddf252ad1be2c89b69c2b068fc378daa952ba7f163c4a11628f55a4df523b3ef60405160405180910390a450505050565b600061073983610854565b821061074457600080fd5b600160a060020a038316600090815260076020526040902080548390811061076857fe5b9060005260206000200154905092915050565b600c54600160a060020a0316331461079257600080fd5b61079c8282610d7e565b5050565b806107ab3382610b2e565b15156107b657600080fd5b6107d284848460206040519081016040528060008152506109e9565b50505050565b600090815260016020526040902054600160a060020a0316151590565b60006107ff61065f565b821061080a57600080fd5b600980548390811061081857fe5b90600052602060002001549050919050565b600081815260016020526040812054600160a060020a031680151561084e57600080fd5b92915050565b6000600160a060020a038216151561086b57600080fd5b50600160a060020a031660009081526003602052604090205490565b600c54600160a060020a0316331461089e57600080fd5b600c54604051600160a060020a03909116907ff8df31144d9c2f0f6b59d69b8b98abd5459d07f2742c4df920b25aae33c6482090600090a2600c805473ffffffffffffffffffffffffffffffffffffffff19169055565b600c54600160a060020a031681565b60068054604080516020601f60026000196101006001881615020190951694909404938401819004810282018101909252828152606093909290918301828280156105835780601f1061055857610100808354040283529160200191610583565b600160a060020a03821633141561097b57600080fd5b336000818152600460209081526040808320600160a060020a03871680855290835292819020805460ff1916861515908117909155815190815290519293927f17307eab39ab6107e8899845ad3d59bd9653f200f220920489ca2b5937696c31929181900390910190a35050565b816109f43382610b2e565b15156109ff57600080fd5b610a0a858585610689565b610a1685858585610dcd565b1515610a2157600080fd5b5050505050565b6060610a33826107d8565b1515610a3e57600080fd5b6000828152600b602090815260409182902080548351601f600260001961010060018616150201909316929092049182018490048402810184019094528084529091830182828015610ad15780601f10610aa657610100808354040283529160200191610ad1565b820191906000526020600020905b815481529060010190602001808311610ab457829003601f168201915b50505050509050919050565b600160a060020a03918216600090815260046020908152604080832093909416825291909152205460ff1690565b600c54600160a060020a03163314610b2257600080fd5b610b2b81610f3a565b50565b600080610b3a8361082a565b905080600160a060020a031684600160a060020a03161480610b75575083600160a060020a0316610b6a8461058e565b600160a060020a0316145b80610b855750610b858185610add565b949350505050565b81600160a060020a0316610ba08261082a565b600160a060020a031614610bb357600080fd5b600081815260026020526040902054600160a060020a03161561079c576000908152600260205260409020805473ffffffffffffffffffffffffffffffffffffffff1916905550565b6000806000610c0b8585610fb8565b600084815260086020908152604080832054600160a060020a0389168452600790925290912054909350610c4690600163ffffffff61104e16565b600160a060020a038616600090815260076020526040902080549193509083908110610c6e57fe5b90600052602060002001549050806007600087600160a060020a0316600160a060020a0316815260200190815260200160002084815481101515610cae57fe5b6000918252602080832090910192909255600160a060020a0387168152600790915260408120805484908110610ce057fe5b6000918252602080832090910192909255600160a060020a0387168152600790915260409020805490610d17906000198301611160565b50600093845260086020526040808520859055908452909220555050565b6000610d418383611060565b50600160a060020a039091166000908152600760209081526040808320805460018101825590845282842081018590559383526008909152902055565b610d8882826110f0565b600980546000838152600a60205260408120829055600182018355919091527f6e1540171b6c0c960b71a7020d9f60077f6af931a8bbf590da0223dacf75c7af015550565b600080610de285600160a060020a031661114b565b1515610df15760019150610f31565b6040517f150b7a020000000000000000000000000000000000000000000000000000000081523360048201818152600160a060020a03898116602485015260448401889052608060648501908152875160848601528751918a169463150b7a0294938c938b938b93909160a490910190602085019080838360005b83811015610e84578181015183820152602001610e6c565b50505050905090810190601f168015610eb15780820380516001836020036101000a031916815260200191505b5095505050505050602060405180830381600087803b158015610ed357600080fd5b505af1158015610ee7573d6000803e3d6000fd5b505050506040513d6020811015610efd57600080fd5b5051600160e060020a031981167f150b7a020000000000000000000000000000000000000000000000000000000014925090505b50949350505050565b600160a060020a0381161515610f4f57600080fd5b600c54604051600160a060020a038084169216907f8be0079c531659141344cd1fd0a4f28419497f9722a3daafe3b4186f6b6457e090600090a3600c805473ffffffffffffffffffffffffffffffffffffffff1916600160a060020a0392909216919091179055565b81600160a060020a0316610fcb8261082a565b600160a060020a031614610fde57600080fd5b600160a060020a03821660009081526003602052604090205461100890600163ffffffff61104e16565b600160a060020a03909216600090815260036020908152604080832094909455918152600190915220805473ffffffffffffffffffffffffffffffffffffffff19169055565b60008282111561105a57fe5b50900390565b600081815260016020526040902054600160a060020a03161561108257600080fd5b6000818152600160208181526040808420805473ffffffffffffffffffffffffffffffffffffffff1916600160a060020a03881690811790915584526003909152909120546110d091611153565b600160a060020a0390921660009081526003602052604090209190915550565b600160a060020a038216151561110557600080fd5b61110f8282610d35565b6040518190600160a060020a038416906000907fddf252ad1be2c89b69c2b068fc378daa952ba7f163c4a11628f55a4df523b3ef908290a45050565b6000903b1190565b8181018281101561084e57fe5b81548183558181111561118457600083815260209020611184918101908301611189565b505050565b61058b91905b808211156111a3576000815560010161118f565b50905600a165627a7a723058206e6dd8d0e5f1857d52b9ca9877db89c8c0f53bb720ea53c4e63b30c807d2e2db0029",
  "source": "pragma solidity 0.4.24;\n\nimport \"openzeppelin-solidity/contracts/token/ERC721/ERC721Token.sol\";\nimport \"openzeppelin-solidity/contracts/ownership/Ownable.sol\";\n\n\ncontract CustomERC721Token is ERC721Token, Ownable {\n  constructor(string _name, string _symbol)\n  public\n  ERC721Token(_name, _symbol) {}\n\n  function mint(address to, uint256 tokenId) external onlyOwner {\n    _mint(to, tokenId);\n  }\n}",
  "sourcePath": "/mnt/c/Users/stive/Documents/work/tsg/dubiex-contracts/contracts/erc721/CustomERC721Token.sol",
  "compiler": {
    "name": "solc",
    "version": "0.4.24+commit.e67f0147.Emscripten.clang"
  },
  "schemaVersion": "2.0.1",
  "updatedAt": "2018-08-01T21:00:29.112Z"
}