{
  "contractName": "DUBIex",
  "abi": [
    {
      "constant": false,
      "inputs": [
        {
          "name": "",
          "type": "address"
        },
        {
          "name": "",
          "type": "address"
        },
        {
          "name": "",
          "type": "uint256"
        },
        {
          "name": "",
          "type": "bytes"
        }
      ],
      "name": "onERC721Received",
      "outputs": [
        {
          "name": "",
          "type": "bytes4"
        }
      ],
      "payable": false,
      "stateMutability": "nonpayable",
      "type": "function"
    },
    {
      "anonymous": false,
      "inputs": [
        {
          "indexed": false,
          "name": "id",
          "type": "uint256"
        },
        {
          "indexed": false,
          "name": "makerValue",
          "type": "uint256"
        },
        {
          "indexed": false,
          "name": "takerValue",
          "type": "uint256"
        },
        {
          "indexed": true,
          "name": "maker",
          "type": "address"
        },
        {
          "indexed": true,
          "name": "makerContractAddress",
          "type": "address"
        },
        {
          "indexed": true,
          "name": "takerContractAddress",
          "type": "address"
        },
        {
          "indexed": false,
          "name": "makerCurrencyType",
          "type": "uint8"
        },
        {
          "indexed": false,
          "name": "takerCurrencyType",
          "type": "uint8"
        }
      ],
      "name": "MadeOrder",
      "type": "event"
    },
    {
      "anonymous": false,
      "inputs": [
        {
          "indexed": true,
          "name": "id",
          "type": "uint256"
        },
        {
          "indexed": true,
          "name": "taker",
          "type": "address"
        },
        {
          "indexed": false,
          "name": "makerValue",
          "type": "uint256"
        },
        {
          "indexed": false,
          "name": "takerValue",
          "type": "uint256"
        }
      ],
      "name": "TookOrder",
      "type": "event"
    },
    {
      "anonymous": false,
      "inputs": [
        {
          "indexed": true,
          "name": "id",
          "type": "uint256"
        }
      ],
      "name": "CanceledOrder",
      "type": "event"
    },
    {
      "constant": true,
      "inputs": [
        {
          "name": "id",
          "type": "uint256"
        }
      ],
      "name": "getOrder",
      "outputs": [
        {
          "name": "",
          "type": "uint256"
        },
        {
          "name": "",
          "type": "uint256"
        },
        {
          "name": "",
          "type": "uint256"
        },
        {
          "name": "",
          "type": "address"
        },
        {
          "name": "",
          "type": "address"
        },
        {
          "name": "",
          "type": "uint8"
        },
        {
          "name": "",
          "type": "uint8"
        }
      ],
      "payable": false,
      "stateMutability": "view",
      "type": "function"
    },
    {
      "constant": false,
      "inputs": [
        {
          "name": "id",
          "type": "uint256"
        },
        {
          "name": "makerValue",
          "type": "uint256"
        },
        {
          "name": "takerValue",
          "type": "uint256"
        },
        {
          "name": "makerContractAddress",
          "type": "address"
        },
        {
          "name": "takerContractAddress",
          "type": "address"
        },
        {
          "name": "makerCurrencyType",
          "type": "uint8"
        },
        {
          "name": "takerCurrencyType",
          "type": "uint8"
        }
      ],
      "name": "makeOrder",
      "outputs": [
        {
          "name": "",
          "type": "bool"
        }
      ],
      "payable": true,
      "stateMutability": "payable",
      "type": "function"
    },
    {
      "constant": false,
      "inputs": [
        {
          "name": "id",
          "type": "uint256"
        },
        {
          "name": "takerValue",
          "type": "uint256"
        }
      ],
      "name": "takeOrder",
      "outputs": [
        {
          "name": "",
          "type": "bool"
        }
      ],
      "payable": true,
      "stateMutability": "payable",
      "type": "function"
    },
    {
      "constant": false,
      "inputs": [
        {
          "name": "id",
          "type": "uint256"
        }
      ],
      "name": "cancelOrder",
      "outputs": [
        {
          "name": "",
          "type": "bool"
        }
      ],
      "payable": false,
      "stateMutability": "nonpayable",
      "type": "function"
    },
    {
      "constant": false,
      "inputs": [
        {
          "name": "ids",
          "type": "uint256[]"
        },
        {
          "name": "makerValues",
          "type": "uint256[]"
        },
        {
          "name": "takerValues",
          "type": "uint256[]"
        },
        {
          "name": "makerContractAddresses",
          "type": "address[]"
        },
        {
          "name": "takerContractAddresses",
          "type": "address[]"
        },
        {
          "name": "makerCurrencyTypes",
          "type": "uint8[]"
        },
        {
          "name": "takerCurrencyTypes",
          "type": "uint8[]"
        }
      ],
      "name": "makeOrders",
      "outputs": [],
      "payable": true,
      "stateMutability": "payable",
      "type": "function"
    },
    {
      "constant": false,
      "inputs": [
        {
          "name": "ids",
          "type": "uint256[]"
        },
        {
          "name": "takerValues",
          "type": "uint256[]"
        }
      ],
      "name": "takeOrders",
      "outputs": [],
      "payable": true,
      "stateMutability": "payable",
      "type": "function"
    },
    {
      "constant": false,
      "inputs": [
        {
          "name": "ids",
          "type": "uint256[]"
        }
      ],
      "name": "cancelOrders",
      "outputs": [],
      "payable": false,
      "stateMutability": "nonpayable",
      "type": "function"
    }
  ],
  "bytecode": "0x60806040526000805460ff1916815560025534801561001d57600080fd5b5061168e8061002d6000396000f3006080604052600436106100745763ffffffff60e060020a600035041663150b7a0281146100795780632eab93cb1461011d578063514fcac71461013f578063a5b1fbe414610157578063ac60324d14610178578063b0c27d0a146101a7578063b55fb57414610202578063d09ef24114610222575b600080fd5b34801561008557600080fd5b50604080516020601f6064356004818101359283018490048402850184019095528184526100e894600160a060020a0381358116956024803590921695604435953695608494019181908401838280828437509497506102a39650505050505050565b604080517fffffffff000000000000000000000000000000000000000000000000000000009092168252519081900360200190f35b61012b6004356024356102cc565b604080519115158252519081900360200190f35b34801561014b57600080fd5b5061012b600435610315565b610176602460048035828101929082013591813591820191013561034c565b005b61012b600435602435604435600160a060020a036064358116906084351660ff60a43581169060c435166103ca565b610176602460048035828101929082013591813580830192908201359160443580830192908201359160643580830192908201359160843580830192908201359160a43580830192908201359160c43591820191013561041d565b34801561020e57600080fd5b50610176600480356024810191013561053e565b34801561022e57600080fd5b5061023a600435610599565b6040805188815260208101889052908101869052600160a060020a0380861660608301528416608082015260a0810183600281111561027557fe5b60ff16815260200182600281111561028957fe5b60ff16815260200197505050505050505060405180910390f35b7f150b7a0200000000000000000000000000000000000000000000000000000000949350505050565b3460025560008054819060ff16156102e357600080fd5b6000805460ff191660011790556102fa84846105f7565b90506103046108e0565b6000805460ff191690559392505050565b6000805460ff161561032657600080fd5b6000805460ff1916600117905561033c8261091d565b6000805460ff1916905592915050565b346002556000805460ff161561036157600080fd5b506000805460ff191660011781555b838110156103b1576103a885858381811061038757fe5b90506020020135848484818110151561039c57fe5b905060200201356105f7565b50600101610370565b6103b96108e0565b50506000805460ff19169055505050565b3460025560008054819060ff16156103e157600080fd5b6000805460ff191660011790556103fd89898989898989610a91565b90506104076108e0565b6000805460ff1916905598975050505050505050565b346002556000805460ff161561043257600080fd5b506000805460ff191660011781555b8d81101561051b576105128f8f8381811061045857fe5b905060200201358e8e84818110151561046d57fe5b905060200201358d8d85818110151561048257fe5b905060200201358c8c86818110151561049757fe5b90506020020135600160a060020a03168b8b8781811015156104b557fe5b90506020020135600160a060020a03168a8a8881811015156104d357fe5b905060200201356002811180156104e957600080fd5b508989898181106104f657fe5b9050602002013560028111801561050c57600080fd5b50610a91565b50600101610441565b6105236108e0565b50506000805460ff1916905550505050505050505050505050565b6000805460ff161561054f57600080fd5b506000805460ff191660011781555b8181101561058a5761058183838381811061057557fe5b9050602002013561091d565b5060010161055e565b50506000805460ff1916905550565b60009081526001602081905260409091208054918101546004820154600283015460058401546003850154600690950154959693959294600160a060020a0392831694929091169260ff60a060020a92839004811693929091041690565b600080600061060461163d565b61060c61163d565b6000808811158061062b57506000888152600160205260409020548814155b80610637575060008711155b1561064557600095506108d5565b6000888152600160208181526040928390209182018054845160608082018752855482528651608081018852838152600280880154600160a060020a0390811683890152600389015490811699830199909952969c50929a506107459691958c95870194929184019160a060020a900460ff16908111156106c257fe5b60028111156106cd57fe5b90525081526040805160808101825260048401805482526005850154600160a060020a0390811660208085019190915260068701549182169484019490945292909301929091606083019060a060020a900460ff16600281111561072d57fe5b600281111561073857fe5b9052509052508589610da8565b97509350861580610754575083155b1561076257600095506108d5565b60408051608081018252858152600287810154600160a060020a0390811660208401526003890154908116938301939093529091606083019160a060020a90910460ff16908111156107b057fe5b9052604080516080810182528981526005880154600160a060020a031660208201523391810191909152600687015491945090606082019060a060020a900460ff1660028111156107fd57fe5b905260025490925061081690839063ffffffff610e5716565b905080151561082857600095506108d5565b60008260600151600281111561083a57fe5b14156108495761084987610ecd565b6108538383610ee6565b61085d8383610fbc565b6001850154610872908563ffffffff61102216565b6001860155600485015461088c908863ffffffff61102216565b60048601556040805185815260208101899052815133928b927fce0b774081bc49a2091adcf33d5ef2182fd1205a57adf247d84bcd55fa85e2d8929081900390910190a3600195505b505050505092915050565b6000600254111561091b57600254604051339180156108fc02916000818181858888f19350505050158015610919573d6000803e3d6000fd5b505b565b60008060008311158061093e57506000838152600160205260409020548314155b806109635750600083815260016020526040902060030154600160a060020a03163314155b156109715760009150610a8b565b50600082815260016020818152604092839020835160808101855292810180548452600280830154600160a060020a03908116948601949094526003830154938416958501959095529093610a4e9392606084019160a060020a90910460ff16908111156109db57fe5b60028111156109e657fe5b9052506040805160808101825260048501805482526005860154600160a060020a0390811660208401526006870154908116938301939093529091606083019060a060020a900460ff166002811115610a3b57fe5b6002811115610a4657fe5b905250610fbc565b6000600182018190556004820181905560405184917f908935b4ac1100644a54389d43e560138add9de2d80b8fafe34e622adcd4378291a2600191505b50919050565b6000610a9b61163d565b6000808a111580610ab9575060008a8152600160205260409020548a145b80610ac5575060008911155b80610ad1575060008811155b15610adf5760009250610d9b565b6080604051908101604052808a815260200188600160a060020a0316815260200133600160a060020a03168152602001866002811115610b1b57fe5b9052600254909250610b3490839063ffffffff610e5716565b9050801515610b465760009250610d9b565b600082606001516002811115610b5857fe5b1415610b6757610b6789610ecd565b610b7082611034565b6060604051908101604052808b81526020018381526020016080604051908101604052808b815260200189600160a060020a031681526020016000600160a060020a03168152602001876002811115610bc557fe5b9052905260008b815260016020818152604092839020845181558482015180519382019384559182015160028083018054600160a060020a0393841673ffffffffffffffffffffffffffffffffffffffff199182161790915595840151600384018054919093169616959095178082556060840151929593949374ff0000000000000000000000000000000000000000199091169060a060020a908490811115610c6b57fe5b02179055505050604082810151805160048401908155602082015160058501805473ffffffffffffffffffffffffffffffffffffffff19908116600160a060020a039384161790915593830151600686018054909516911617808455606083015192939192919074ff0000000000000000000000000000000000000000191660a060020a836002811115610cfb57fe5b0217905550505090505085600160a060020a031687600160a060020a031633600160a060020a03167fef101f7835f18a52ad55e657b72e10f30fd717b4a8c16e6bbf27992578b270578d8d8d8b8b60405180868152602001858152602001848152602001836002811115610d6b57fe5b60ff168152602001826002811115610d7f57fe5b60ff1681526020019550505050505060405180910390a4600192505b5050979650505050505050565b60008060028560200151606001516002811115610dc157fe5b1415610ddd576040850151518314610dd857600092505b610e4d565b60028560400151606001516002811115610df357fe5b1415610e0e576040850151518314610dd85760009250610e4d565b604085015151831115610e245760408501515192505b604085015151610e4a90610e3e868663ffffffff61109b16565b9063ffffffff6110c416565b93505b5091939092509050565b60008083606001516002811115610e6a57fe5b1415610e8157610e7a83836110d9565b9050610ec7565b600183606001516002811115610e9357fe5b1415610ea257610e7a836110f8565b600283606001516002811115610eb457fe5b1415610ec357610e7a836111af565b5060005b92915050565b600254610ee0908263ffffffff61102216565b60025550565b600081606001516002811115610ef857fe5b1415610f0d57610f08828261124a565b610fb8565b600181606001516002811115610f1f57fe5b1415610f2f57610f08828261128b565b600281606001516002811115610f4157fe5b1415610f5157610f0882826112bb565b604080517f08c379a000000000000000000000000000000000000000000000000000000000815260206004820152601b60248201527f63757272656e63795479706520646f6573206e6f742065786973740000000000604482015290519081900360640190fd5b5050565b600082606001516002811115610fce57fe5b1415610fde57610f088282611356565b600182606001516002811115610ff057fe5b141561100057610f088282611392565b60028260600151600281111561101257fe5b1415610f5157610f0882826113b6565b60008282111561102e57fe5b50900390565b60008160600151600281111561104657fe5b14156110595761105461091b565b610919565b60018160600151600281111561106b57fe5b141561107a5761105481611432565b60028160600151600281111561108c57fe5b1415610f51576110548161145b565b60008215156110ac57506000610ec7565b508181028183828115156110bc57fe5b0414610ec757fe5b600081838115156110d157fe5b049392505050565b600081836000015111156110ef57506000610ec7565b50600192915050565b60208082015160408084015181517fdd62ed3e000000000000000000000000000000000000000000000000000000008152600160a060020a03918216600482015230602482015291516000948594929092169263dd62ed3e92604480830193919282900301818787803b15801561116e57600080fd5b505af1158015611182573d6000803e3d6000fd5b505050506040513d602081101561119857600080fd5b505183519091508110156110ef5760009150610a8b565b6000808260200151600160a060020a031663081812fc84600001516040518263ffffffff1660e060020a02815260040180828152602001915050602060405180830381600087803b15801561120357600080fd5b505af1158015611217573d6000803e3d6000fd5b505050506040513d602081101561122d57600080fd5b50519050600160a060020a03811630146110ef5760009150610a8b565b60408083015182519151600160a060020a039091169180156108fc02916000818181858888f19350505050158015611286573d6000803e3d6000fd5b505050565b610fb88160400151836040015183600001518460200151600160a060020a03166114f2909392919063ffffffff16565b602081015160408083015184820151845183517f42842e0e000000000000000000000000000000000000000000000000000000008152600160a060020a0393841660048201529183166024830152604482015291519216916342842e0e9160648082019260009290919082900301818387803b15801561133a57600080fd5b505af115801561134e573d6000803e3d6000fd5b505050505050565b60408082015183519151600160a060020a039091169180156108fc02916000818181858888f19350505050158015611286573d6000803e3d6000fd5b81516020830151610fb891600160a060020a0390911690309063ffffffff6115a316565b6020820151604080840151845182517f42842e0e000000000000000000000000000000000000000000000000000000008152306004820152600160a060020a039283166024820152604481019190915291519216916342842e0e9160648082019260009290919082900301818387803b15801561133a57600080fd5b60408101518151602083015161091992600160a060020a0390911691309063ffffffff6114f216565b6020810151604080830151835182517f42842e0e000000000000000000000000000000000000000000000000000000008152600160a060020a039283166004820152306024820152604481019190915291519216916342842e0e9160648082019260009290919082900301818387803b1580156114d757600080fd5b505af11580156114eb573d6000803e3d6000fd5b5050505050565b604080517f23b872dd000000000000000000000000000000000000000000000000000000008152600160a060020a0385811660048301528481166024830152604482018490529151918616916323b872dd916064808201926020929091908290030181600087803b15801561156657600080fd5b505af115801561157a573d6000803e3d6000fd5b505050506040513d602081101561159057600080fd5b5051151561159d57600080fd5b50505050565b82600160a060020a031663a9059cbb83836040518363ffffffff1660e060020a0281526004018083600160a060020a0316600160a060020a0316815260200182815260200192505050602060405180830381600087803b15801561160657600080fd5b505af115801561161a573d6000803e3d6000fd5b505050506040513d602081101561163057600080fd5b5051151561128657600080fd5b60408051608081018252600080825260208201819052918101829052906060820152905600a165627a7a723058205128961adfda39539fe86c12f1beffd036aaaedf2110e9982629a41e6f6f35260029",
  "source": "pragma solidity 0.4.24;\n\nimport \"openzeppelin-solidity/contracts/math/SafeMath.sol\";\nimport \"openzeppelin-solidity/contracts/token/ERC20/ERC20.sol\";\nimport \"openzeppelin-solidity/contracts/token/ERC20/SafeERC20.sol\";\nimport \"openzeppelin-solidity/contracts/token/ERC721/ERC721.sol\";\nimport \"openzeppelin-solidity/contracts/token/ERC721/ERC721Holder.sol\";\nimport \"openzeppelin-solidity/contracts/ReentrancyGuard.sol\";\nimport \"./Types.sol\";\nimport \"./IsApproved.sol\";\nimport \"./Claim.sol\";\nimport \"./TransferToMaker.sol\";\nimport \"./TransferToTaker.sol\";\n\n\ncontract DUBIex is ReentrancyGuard, ERC721Holder {\n  using SafeMath for uint256;\n  using IsApproved for Types.Item;\n  using Claim for Types.Item;\n\n  event MadeOrder(\n    uint256 id,\n    uint256 makerValue,\n    uint256 takerValue,\n    address indexed maker,\n    address indexed makerContractAddress,\n    address indexed takerContractAddress,\n    Types.CurrencyType makerCurrencyType,\n    Types.CurrencyType takerCurrencyType\n  );\n\n  event TookOrder(uint256 indexed id, address indexed taker, uint256 makerValue, uint256 takerValue);\n  \n  event CanceledOrder(uint256 indexed id);\n\n  // id -> Order\n  mapping(uint256 => Types.Order) private orderBook;\n\n  // weiSend of current transaction\n  uint256 private weiSend = 0;\n\n  // makes sure weiSend is updated for each new transaction\n  modifier updateWeiSend() {\n    weiSend = msg.value;\n    _;\n  }\n\n  // decreases weiSend within current transaction\n  function decreaseWeiSend(uint256 amount) private {\n    weiSend = weiSend.sub(amount);\n  }\n\n  // sends back remaining Wei received from current transaction\n  function transferBackRemainingWei() private {\n    if (weiSend > 0) msg.sender.transfer(weiSend);\n  }\n\n  // returns order\n  function getOrder(uint256 id) external view returns (\n    uint256,\n    uint256,\n    uint256,\n    address,\n    address,\n    Types.CurrencyType,\n    Types.CurrencyType\n  ) {\n    Types.Order storage order = orderBook[id];\n\n    return (\n      order.id,\n      order.makerItem.value,\n      order.takerItem.value,\n      order.makerItem.contractAddress,\n      order.takerItem.contractAddress,\n      order.makerItem.currencyType,\n      order.takerItem.currencyType\n    );\n  }\n\n  function verifyValues(\n    Types.Order memory order,\n    uint256 makerValue,\n    uint256 takerValue\n  ) private pure returns (uint256, uint256) {\n    if (order.makerItem.currencyType == Types.CurrencyType.ERC721) {\n      // if buying ERC721, takerValue must be what maker requested for a price\n      if (takerValue != order.takerItem.value) takerValue = 0;\n    } else if (order.takerItem.currencyType == Types.CurrencyType.ERC721) {\n      // if selling ERC721, takerValue must be what maker requested for a price\n      if (takerValue != order.takerItem.value) takerValue = 0;\n    } else {\n      // if takerValue should not be larger than makers request\n      if (takerValue > order.takerItem.value) {\n        takerValue = order.takerItem.value;\n      }\n\n      // calculate makerValue to withdraw\n      makerValue = makerValue.mul(takerValue).div(order.takerItem.value);\n    }\n\n    return (\n      makerValue,\n      takerValue\n    );\n  }\n\n  function makeOrderInternal(\n    uint256 id,\n    uint256 makerValue,\n    uint256 takerValue,\n    address makerContractAddress,\n    address takerContractAddress,\n    Types.CurrencyType makerCurrencyType,\n    Types.CurrencyType takerCurrencyType\n  ) internal returns (bool) {\n    if (\n      id <= 0 || // invalid id\n      id == orderBook[id].id || // id already exists\n      makerValue <= 0 || // makerValue is 0\n      takerValue <= 0 // takerValue is 0\n    ) return false;\n\n    // create makerItem\n    Types.Item memory makerItem = Types.Item(makerValue, makerContractAddress, msg.sender, makerCurrencyType);\n\n    // check if we can receive makerItem successfuly\n    bool isOk = makerItem.isApproved(weiSend);\n    if (!isOk) return false;\n\n    // decrease weiSend\n    if (makerItem.currencyType == Types.CurrencyType.ETHEREUM) { \n      decreaseWeiSend(makerValue);\n    }\n\n    // claim item\n    makerItem.claim();\n\n    // update orders\n    orderBook[id] = Types.Order(\n      id,\n      makerItem,\n      Types.Item(takerValue, takerContractAddress, address(0x0), takerCurrencyType)\n    );\n\n    emit MadeOrder(\n      id,\n      makerValue,\n      takerValue,\n      msg.sender,\n      makerContractAddress,\n      takerContractAddress,\n      makerCurrencyType,\n      takerCurrencyType\n    );\n\n    return true;\n  }\n\n  function takeOrderInternal(\n    uint256 id,\n    uint256 takerValue\n  ) internal returns (bool) {\n    if (\n      id <= 0 || // invalid id\n      id != orderBook[id].id || // id does not exist\n      takerValue <= 0 // takerValue is 0\n    ) return false;\n\n    Types.Order storage order = orderBook[id];\n    uint256 makerValue = order.makerItem.value;\n\n    (makerValue, takerValue) = verifyValues(order, makerValue, takerValue);\n    if (takerValue == 0 || makerValue == 0) return false;\n\n    // create makerItem\n    Types.Item memory makerItem = Types.Item(\n      makerValue,\n      order.makerItem.contractAddress,\n      order.makerItem.owner,\n      order.makerItem.currencyType\n    );\n    // create takerItem\n    Types.Item memory takerItem = Types.Item(\n      takerValue,\n      order.takerItem.contractAddress,\n      msg.sender,\n      order.takerItem.currencyType\n    );\n\n    // check if we can receive takerItem successfuly\n    bool isOk = takerItem.isApproved(weiSend);\n    if (!isOk) return false;\n\n    // decrease weiSend\n    if (takerItem.currencyType == Types.CurrencyType.ETHEREUM) { \n      decreaseWeiSend(takerValue);\n    }\n\n    TransferToMaker.transfer(makerItem, takerItem);\n    TransferToTaker.transfer(makerItem, takerItem);\n\n    order.makerItem.value = order.makerItem.value.sub(makerValue);\n    order.takerItem.value = order.takerItem.value.sub(takerValue);\n\n    emit TookOrder(\n      id,\n      msg.sender,\n      makerValue,\n      takerValue\n    );\n\n    return true;\n  }\n\n  function cancelOrderInternal(\n    uint256 id\n  ) internal returns (bool) {\n    if (\n      id <= 0 || // invalid id\n      id != orderBook[id].id || // id does not exist\n      orderBook[id].makerItem.owner != msg.sender // sender is not the maker of the order\n    ) return false;\n\n    // get order\n    Types.Order storage order = orderBook[id];\n\n    // maker becomes taker\n    TransferToTaker.transfer(order.makerItem, order.takerItem);\n\n    // update items\n    order.makerItem.value = 0;\n    order.takerItem.value = 0;\n\n    emit CanceledOrder(id);\n\n    return true;\n  }\n\n  // single\n  function makeOrder(\n    uint256 id,\n    uint256 makerValue,\n    uint256 takerValue,\n    address makerContractAddress,\n    address takerContractAddress,\n    Types.CurrencyType makerCurrencyType,\n    Types.CurrencyType takerCurrencyType\n  ) external payable updateWeiSend nonReentrant returns (bool) {\n    bool success = makeOrderInternal(\n      id,\n      makerValue,\n      takerValue,\n      makerContractAddress,\n      takerContractAddress,\n      makerCurrencyType,\n      takerCurrencyType\n    );\n\n    transferBackRemainingWei();\n\n    return success;\n  }\n\n  function takeOrder(\n    uint256 id,\n    uint256 takerValue\n  ) external payable updateWeiSend nonReentrant returns (bool) {\n    bool success = takeOrderInternal(\n      id,\n      takerValue\n    );\n\n    transferBackRemainingWei();\n\n    return success;\n  }\n\n  function cancelOrder(\n    uint256 id\n  ) external nonReentrant returns (bool) {\n    return cancelOrderInternal(id);\n  }\n\n  // multi\n  function makeOrders(\n    uint256[] ids,\n    uint256[] makerValues,\n    uint256[] takerValues,\n    address[] makerContractAddresses,\n    address[] takerContractAddresses,\n    Types.CurrencyType[] makerCurrencyTypes,\n    Types.CurrencyType[] takerCurrencyTypes\n  ) external payable updateWeiSend nonReentrant {\n    for (uint256 i = 0; i < ids.length; i++) {\n      makeOrderInternal(\n        ids[i],\n        makerValues[i],\n        takerValues[i],\n        makerContractAddresses[i],\n        takerContractAddresses[i],\n        makerCurrencyTypes[i],\n        takerCurrencyTypes[i]\n      );\n    }\n\n    transferBackRemainingWei();\n  }\n\n  function takeOrders(\n    uint256[] ids,\n    uint256[] takerValues\n  ) external payable updateWeiSend nonReentrant {\n    for (uint256 i = 0; i < ids.length; i++) {\n      takeOrderInternal(ids[i], takerValues[i]);\n    }\n\n    transferBackRemainingWei();\n  }\n\n  function cancelOrders(\n    uint256[] ids\n  ) external nonReentrant {\n    for (uint256 i = 0; i < ids.length; i++) {\n      cancelOrderInternal(ids[i]);\n    }\n  }\n}",
  "sourcePath": "/mnt/c/Users/stive/Documents/work/tsg/dubiex-contracts/contracts/DUBIex/DUBIex.sol",
  "compiler": {
    "name": "solc",
    "version": "0.4.24+commit.e67f0147.Emscripten.clang"
  },
  "schemaVersion": "2.0.1",
  "updatedAt": "2018-08-01T21:00:29.160Z"
}