{
  "contractName": "ERC20TokenGenerator",
  "abi": [
    {
      "constant": true,
      "inputs": [],
      "name": "DUBI_HOLDERS",
      "outputs": [
        {
          "name": "",
          "type": "address"
        }
      ],
      "payable": false,
      "stateMutability": "view",
      "type": "function"
    },
    {
      "anonymous": false,
      "inputs": [
        {
          "indexed": false,
          "name": "tokenAddress",
          "type": "address"
        }
      ],
      "name": "TokenGenerated",
      "type": "event"
    },
    {
      "constant": false,
      "inputs": [
        {
          "name": "_name",
          "type": "string"
        },
        {
          "name": "_symbol",
          "type": "string"
        },
        {
          "name": "_decimals",
          "type": "uint8"
        },
        {
          "name": "_supply",
          "type": "uint256"
        },
        {
          "name": "_user",
          "type": "address"
        }
      ],
      "name": "generate",
      "outputs": [],
      "payable": false,
      "stateMutability": "nonpayable",
      "type": "function"
    }
  ],
  "bytecode": "0x608060405234801561001057600080fd5b50610f32806100206000396000f30060806040526004361061004b5763ffffffff7c01000000000000000000000000000000000000000000000000000000006000350416633f7a118a8114610050578063a7f6203b14610093575b600080fd5b34801561005c57600080fd5b50610091602460048035828101929082013591813591820191013560ff60443516606435600160a060020a03608435166100c4565b005b34801561009f57600080fd5b506100a8610311565b60408051600160a060020a039092168252519081900360200190f35b600080806100ea60646100de87600a63ffffffff61032916565b9063ffffffff61035816565b92506100fc858463ffffffff61036d16565b915089898989898661010c61037a565b60ff831660408201526060810182905260808082528101869052806020810160a0820189898082843790910184810383528781526020019050878780828437820191505098505050505050505050604051809103906000f080158015610176573d6000803e3d6000fd5b50905080600160a060020a031663a9059cbb85876040518363ffffffff167c01000000000000000000000000000000000000000000000000000000000281526004018083600160a060020a0316600160a060020a0316815260200182815260200192505050602060405180830381600087803b1580156101f557600080fd5b505af1158015610209573d6000803e3d6000fd5b505050506040513d602081101561021f57600080fd5b5050604080517fa9059cbb00000000000000000000000000000000000000000000000000000000815273d93c8bf051ec9816835d89e0c72d1ffbae7ae4a96004820152602481018590529051600160a060020a0383169163a9059cbb9160448083019260209291908290030181600087803b15801561029d57600080fd5b505af11580156102b1573d6000803e3d6000fd5b505050506040513d60208110156102c757600080fd5b505060408051600160a060020a038316815290517fd5c08ee566820c86f68f298fec9740d9b7f86704484bb50f5d9247845ab8ac789181900360200190a150505050505050505050565b73d93c8bf051ec9816835d89e0c72d1ffbae7ae4a981565b600082151561033a57506000610352565b5081810281838281151561034a57fe5b041461035257fe5b92915050565b6000818381151561036557fe5b049392505050565b8181018281101561035257fe5b604051610b7c8061038b833901905600608060405234801561001057600080fd5b50604051610b7c380380610b7c8339810160409081528151602080840151928401516060850151928501805190959490940193909291610055916003918701906100bf565b5082516100699060049060208601906100bf565b506005805460ff191660ff939093169290921761010060a860020a03191661010033810291909117928390556001829055600160a060020a039204919091166000908152602081905260409020555061015a9050565b828054600181600116156101000203166002900490600052602060002090601f016020900481019282601f1061010057805160ff191683800117855561012d565b8280016001018555821561012d579182015b8281111561012d578251825591602001919060010190610112565b5061013992915061013d565b5090565b61015791905b808211156101395760008155600101610143565b90565b610a13806101696000396000f3006080604052600436106100c45763ffffffff7c010000000000000000000000000000000000000000000000000000000060003504166306fdde0381146100c9578063095ea7b31461015357806318160ddd1461018b57806323b872dd146101b2578063313ce567146101dc57806336da44681461020757806342966c6814610238578063661884631461025257806370a082311461027657806395d89b4114610297578063a9059cbb146102ac578063d73dd623146102d0578063dd62ed3e146102f4575b600080fd5b3480156100d557600080fd5b506100de61031b565b6040805160208082528351818301528351919283929083019185019080838360005b83811015610118578181015183820152602001610100565b50505050905090810190601f1680156101455780820380516001836020036101000a031916815260200191505b509250505060405180910390f35b34801561015f57600080fd5b50610177600160a060020a03600435166024356103a9565b604080519115158252519081900360200190f35b34801561019757600080fd5b506101a061040f565b60408051918252519081900360200190f35b3480156101be57600080fd5b50610177600160a060020a0360043581169060243516604435610415565b3480156101e857600080fd5b506101f161058c565b6040805160ff9092168252519081900360200190f35b34801561021357600080fd5b5061021c610595565b60408051600160a060020a039092168252519081900360200190f35b34801561024457600080fd5b506102506004356105a9565b005b34801561025e57600080fd5b50610177600160a060020a03600435166024356105b6565b34801561028257600080fd5b506101a0600160a060020a03600435166106a6565b3480156102a357600080fd5b506100de6106c1565b3480156102b857600080fd5b50610177600160a060020a036004351660243561071c565b3480156102dc57600080fd5b50610177600160a060020a03600435166024356107fd565b34801561030057600080fd5b506101a0600160a060020a0360043581169060243516610896565b6003805460408051602060026001851615610100026000190190941693909304601f810184900484028201840190925281815292918301828280156103a15780601f10610376576101008083540402835291602001916103a1565b820191906000526020600020905b81548152906001019060200180831161038457829003601f168201915b505050505081565b336000818152600260209081526040808320600160a060020a038716808552908352818420869055815186815291519394909390927f8c5be1e5ebec7d5bd14f71427d1e84f3dd0314c0f7b2291e5b200ac8c7c3b925928290030190a350600192915050565b60015490565b6000600160a060020a038316151561042c57600080fd5b600160a060020a03841660009081526020819052604090205482111561045157600080fd5b600160a060020a038416600090815260026020908152604080832033845290915290205482111561048157600080fd5b600160a060020a0384166000908152602081905260409020546104aa908363ffffffff6108c116565b600160a060020a0380861660009081526020819052604080822093909355908516815220546104df908363ffffffff6108d316565b600160a060020a03808516600090815260208181526040808320949094559187168152600282528281203382529091522054610521908363ffffffff6108c116565b600160a060020a03808616600081815260026020908152604080832033845282529182902094909455805186815290519287169391927fddf252ad1be2c89b69c2b068fc378daa952ba7f163c4a11628f55a4df523b3ef929181900390910190a35060019392505050565b60055460ff1681565b6005546101009004600160a060020a031681565b6105b333826108e6565b50565b336000908152600260209081526040808320600160a060020a03861684529091528120548083111561060b57336000908152600260209081526040808320600160a060020a0388168452909152812055610640565b61061b818463ffffffff6108c116565b336000908152600260209081526040808320600160a060020a03891684529091529020555b336000818152600260209081526040808320600160a060020a0389168085529083529281902054815190815290519293927f8c5be1e5ebec7d5bd14f71427d1e84f3dd0314c0f7b2291e5b200ac8c7c3b925929181900390910190a35060019392505050565b600160a060020a031660009081526020819052604090205490565b6004805460408051602060026001851615610100026000190190941693909304601f810184900484028201840190925281815292918301828280156103a15780601f10610376576101008083540402835291602001916103a1565b6000600160a060020a038316151561073357600080fd5b3360009081526020819052604090205482111561074f57600080fd5b3360009081526020819052604090205461076f908363ffffffff6108c116565b3360009081526020819052604080822092909255600160a060020a038516815220546107a1908363ffffffff6108d316565b600160a060020a038416600081815260208181526040918290209390935580518581529051919233927fddf252ad1be2c89b69c2b068fc378daa952ba7f163c4a11628f55a4df523b3ef9281900390910190a350600192915050565b336000908152600260209081526040808320600160a060020a0386168452909152812054610831908363ffffffff6108d316565b336000818152600260209081526040808320600160a060020a0389168085529083529281902085905580519485525191937f8c5be1e5ebec7d5bd14f71427d1e84f3dd0314c0f7b2291e5b200ac8c7c3b925929081900390910190a350600192915050565b600160a060020a03918216600090815260026020908152604080832093909416825291909152205490565b6000828211156108cd57fe5b50900390565b818101828110156108e057fe5b92915050565b600160a060020a03821660009081526020819052604090205481111561090b57600080fd5b600160a060020a038216600090815260208190526040902054610934908263ffffffff6108c116565b600160a060020a038316600090815260208190526040902055600154610960908263ffffffff6108c116565b600155604080518281529051600160a060020a038416917fcc16f5dbb4873280815c1ee09dbd06736cffcc184412cf7a71a0fdb75d397ca5919081900360200190a2604080518281529051600091600160a060020a038516917fddf252ad1be2c89b69c2b068fc378daa952ba7f163c4a11628f55a4df523b3ef9181900360200190a350505600a165627a7a7230582007b3199cc7a7ee08265f6504b0035eaafd9864010636b7bd77d89f154f16d1310029a165627a7a723058203d72dc4e4a5cb5abd3bc079585cd65f45e5d5795c871a2feac7c08f3cf1c07e60029",
  "source": "pragma solidity 0.4.24;\n\nimport \"openzeppelin-solidity/contracts/math/SafeMath.sol\";\nimport \"./CustomERC20Token.sol\";\n\n\ncontract ERC20TokenGenerator {\n  using SafeMath for uint256;\n\n  // dubi holders address\n  address public constant DUBI_HOLDERS = 0xd93C8bF051EC9816835d89E0C72d1FFbAe7aE4a9;\n\n  // logs\n  event TokenGenerated(address tokenAddress);\n\n  function generate(string _name, string _symbol, uint8 _decimals, uint256 _supply, address _user) external {\n    // calculate dubi extra amount\n    uint256 dubiHoldersAmount = _supply.mul(10).div(100);\n    uint256 _totalSupply = _supply.add(dubiHoldersAmount);\n\n    // create token\n    CustomERC20Token token = new CustomERC20Token(_name, _symbol, _decimals, _totalSupply);\n\n    // give tokens to user and dubiHolders\n    token.transfer(_user, _supply);\n    token.transfer(DUBI_HOLDERS, dubiHoldersAmount);\n\n    // log new token address\n    emit TokenGenerated(address(token));\n  }\n}",
  "sourcePath": "/mnt/c/Users/stive/Documents/work/tsg/dubiex-contracts/contracts/erc20/ERC20TokenGenerator.sol",
  "compiler": {
    "name": "solc",
    "version": "0.4.24+commit.e67f0147.Emscripten.clang"
  },
  "schemaVersion": "2.0.1",
  "updatedAt": "2018-08-07T13:30:06.849Z"
}