{
  "contractName": "TokenGenerator",
  "abi": [
    {
      "constant": false,
      "inputs": [
        {
          "name": "_name",
          "type": "string"
        },
        {
          "name": "_symbol",
          "type": "string"
        },
        {
          "name": "_decimals",
          "type": "uint8"
        },
        {
          "name": "_supply",
          "type": "uint256"
        },
        {
          "name": "_user",
          "type": "address"
        }
      ],
      "name": "generate",
      "outputs": [],
      "payable": false,
      "stateMutability": "nonpayable",
      "type": "function"
    },
    {
      "constant": true,
      "inputs": [],
      "name": "dubiHolders",
      "outputs": [
        {
          "name": "",
          "type": "address"
        }
      ],
      "payable": false,
      "stateMutability": "view",
      "type": "function"
    },
    {
      "anonymous": false,
      "inputs": [
        {
          "indexed": false,
          "name": "item",
          "type": "string"
        },
        {
          "indexed": false,
          "name": "addr",
          "type": "address"
        }
      ],
      "name": "LogAddress",
      "type": "event"
    }
  ],
  "bytecode": "0x6060604052341561000f57600080fd5b610f138061001e6000396000f3006060604052600436106100325763ffffffff60e060020a6000350416633f7a118a811461003757806399e9b20414610078575b600080fd5b341561004257600080fd5b610076602460048035828101929082013591813591820191013560ff60443516606435600160a060020a03608435166100a7565b005b341561008357600080fd5b61008b6102d8565b604051600160a060020a03909116815260200160405180910390f35b600080806100cd60646100c187600a63ffffffff6102f016565b9063ffffffff61032616565b92506100df858463ffffffff61033d16565b91508989898989866100ef61034c565b60ff831660408201526060810182905260808082528101869052806020810160a0820189898082843790910184810383528781526020019050878780828437820191505098505050505050505050604051809103906000f080151561015357600080fd5b905080600160a060020a031663a9059cbb858760006040516020015260405160e060020a63ffffffff8516028152600160a060020a0390921660048301526024820152604401602060405180830381600087803b15156101b257600080fd5b6102c65a03f115156101c357600080fd5b50505060405180515050600160a060020a03811663a9059cbb73d93c8bf051ec9816835d89e0c72d1ffbae7ae4a98560006040516020015260405160e060020a63ffffffff8516028152600160a060020a0390921660048301526024820152604401602060405180830381600087803b151561023e57600080fd5b6102c65a03f1151561024f57600080fd5b50505060405180519050507f62ddffe5b5108385f7a590f100e1ee414ad9551a31f089e64e82998440785e1e81604051600160a060020a03909116602082015260408082526005818301527f746f6b656e00000000000000000000000000000000000000000000000000000060608301526080909101905180910390a150505050505050505050565b73d93c8bf051ec9816835d89e0c72d1ffbae7ae4a981565b600080831515610303576000915061031f565b5082820282848281151561031357fe5b041461031b57fe5b8091505b5092915050565b600080828481151561033457fe5b04949350505050565b60008282018381101561031b57fe5b604051610b8b8061035d8339019056006060604052341561000f57600080fd5b604051610b8b380380610b8b83398101604052808051820191906020018051820191906020018051919060200180519150600390508480516100559291602001906100c2565b5060048380516100699291602001906100c2565b506005805460ff191660ff939093169290921761010060a860020a03191661010033600160a060020a039081168202929092179384905560018390559092049091166000908152602081905260409020555061015d9050565b828054600181600116156101000203166002900490600052602060002090601f016020900481019282601f1061010357805160ff1916838001178555610130565b82800160010185558215610130579182015b82811115610130578251825591602001919060010190610115565b5061013c929150610140565b5090565b61015a91905b8082111561013c5760008155600101610146565b90565b610a1f8061016c6000396000f3006060604052600436106100c45763ffffffff7c010000000000000000000000000000000000000000000000000000000060003504166306fdde0381146100c9578063095ea7b31461015357806318160ddd1461018957806323b872dd146101ae578063313ce567146101d657806336da4468146101ff57806342966c681461022e578063661884631461024657806370a082311461026857806395d89b4114610287578063a9059cbb1461029a578063d73dd623146102bc578063dd62ed3e146102de575b600080fd5b34156100d457600080fd5b6100dc610303565b60405160208082528190810183818151815260200191508051906020019080838360005b83811015610118578082015183820152602001610100565b50505050905090810190601f1680156101455780820380516001836020036101000a031916815260200191505b509250505060405180910390f35b341561015e57600080fd5b610175600160a060020a03600435166024356103a1565b604051901515815260200160405180910390f35b341561019457600080fd5b61019c61040d565b60405190815260200160405180910390f35b34156101b957600080fd5b610175600160a060020a0360043581169060243516604435610413565b34156101e157600080fd5b6101e9610593565b60405160ff909116815260200160405180910390f35b341561020a57600080fd5b61021261059c565b604051600160a060020a03909116815260200160405180910390f35b341561023957600080fd5b6102446004356105b0565b005b341561025157600080fd5b610175600160a060020a036004351660243561066a565b341561027357600080fd5b61019c600160a060020a0360043516610764565b341561029257600080fd5b6100dc61077f565b34156102a557600080fd5b610175600160a060020a03600435166024356107ea565b34156102c757600080fd5b610175600160a060020a03600435166024356108fc565b34156102e957600080fd5b61019c600160a060020a03600435811690602435166109a0565b60038054600181600116156101000203166002900480601f0160208091040260200160405190810160405280929190818152602001828054600181600116156101000203166002900480156103995780601f1061036e57610100808354040283529160200191610399565b820191906000526020600020905b81548152906001019060200180831161037c57829003601f168201915b505050505081565b600160a060020a03338116600081815260026020908152604080832094871680845294909152808220859055909291907f8c5be1e5ebec7d5bd14f71427d1e84f3dd0314c0f7b2291e5b200ac8c7c3b9259085905190815260200160405180910390a350600192915050565b60015490565b6000600160a060020a038316151561042a57600080fd5b600160a060020a03841660009081526020819052604090205482111561044f57600080fd5b600160a060020a038085166000908152600260209081526040808320339094168352929052205482111561048257600080fd5b600160a060020a0384166000908152602081905260409020546104ab908363ffffffff6109cb16565b600160a060020a0380861660009081526020819052604080822093909355908516815220546104e0908363ffffffff6109dd16565b600160a060020a0380851660009081526020818152604080832094909455878316825260028152838220339093168252919091522054610526908363ffffffff6109cb16565b600160a060020a03808616600081815260026020908152604080832033861684529091529081902093909355908516917fddf252ad1be2c89b69c2b068fc378daa952ba7f163c4a11628f55a4df523b3ef9085905190815260200160405180910390a35060019392505050565b60055460ff1681565b6005546101009004600160a060020a031681565b600160a060020a0333166000908152602081905260408120548211156105d557600080fd5b5033600160a060020a0381166000908152602081905260409020546105fa90836109cb565b600160a060020a038216600090815260208190526040902055600154610626908363ffffffff6109cb16565b600155600160a060020a0381167fcc16f5dbb4873280815c1ee09dbd06736cffcc184412cf7a71a0fdb75d397ca58360405190815260200160405180910390a25050565b600160a060020a033381166000908152600260209081526040808320938616835292905290812054808311156106c757600160a060020a0333811660009081526002602090815260408083209388168352929052908120556106fe565b6106d7818463ffffffff6109cb16565b600160a060020a033381166000908152600260209081526040808320938916835292905220555b600160a060020a0333811660008181526002602090815260408083209489168084529490915290819020547f8c5be1e5ebec7d5bd14f71427d1e84f3dd0314c0f7b2291e5b200ac8c7c3b925915190815260200160405180910390a35060019392505050565b600160a060020a031660009081526020819052604090205490565b60048054600181600116156101000203166002900480601f0160208091040260200160405190810160405280929190818152602001828054600181600116156101000203166002900480156103995780601f1061036e57610100808354040283529160200191610399565b6000600160a060020a038316151561080157600080fd5b600160a060020a03331660009081526020819052604090205482111561082657600080fd5b600160a060020a03331660009081526020819052604090205461084f908363ffffffff6109cb16565b600160a060020a033381166000908152602081905260408082209390935590851681522054610884908363ffffffff6109dd16565b60008085600160a060020a0316600160a060020a031681526020019081526020016000208190555082600160a060020a031633600160a060020a03167fddf252ad1be2c89b69c2b068fc378daa952ba7f163c4a11628f55a4df523b3ef8460405190815260200160405180910390a350600192915050565b600160a060020a033381166000908152600260209081526040808320938616835292905290812054610934908363ffffffff6109dd16565b600160a060020a0333811660008181526002602090815260408083209489168084529490915290819020849055919290917f8c5be1e5ebec7d5bd14f71427d1e84f3dd0314c0f7b2291e5b200ac8c7c3b92591905190815260200160405180910390a350600192915050565b600160a060020a03918216600090815260026020908152604080832093909416825291909152205490565b6000828211156109d757fe5b50900390565b6000828201838110156109ec57fe5b93925050505600a165627a7a723058209d21f143d0be4dad9464634809cb9e2a66c922b567876c4d4fcbe6841b64eeb80029a165627a7a72305820d789af4a5fdc27f9ce1c4a253b0217a4ee20f5acc89fa6a6967a5df9df4809620029",
  "source": "pragma solidity 0.4.18;\n\nimport \"zeppelin-solidity/contracts/math/SafeMath.sol\";\nimport \"./Token.sol\";\n\n\ncontract TokenGenerator {\n  using SafeMath for uint256;\n\n  // dubi holders address\n  address public constant dubiHolders = 0xd93C8bF051EC9816835d89E0C72d1FFbAe7aE4a9;\n\n  // logs\n  event LogAddress (string item, address addr);\n\n  function generate(string _name, string _symbol, uint8 _decimals, uint256 _supply, address _user) external {\n    // calculate dubi extra amount\n    uint256 dubiHoldersAmount = _supply.mul(10).div(100);\n    uint256 _totalSupply = _supply.add(dubiHoldersAmount);\n\n    // create token\n    Token token = new Token(_name, _symbol, _decimals, _totalSupply);\n\n    // give tokens to user and dubiHolders\n    token.transfer(_user, _supply);\n    token.transfer(dubiHolders, dubiHoldersAmount);\n\n    // log new token address\n    LogAddress(\"token\", address(token));\n  }\n}",
  "sourcePath": "/mnt/d/work/thesingularitygroup/projects/dubiex/dubiex/contracts/TokenGenerator.sol",
  "compiler": {
    "name": "solc",
    "version": "0.4.18+commit.9cf6e910.Emscripten.clang"
  },
  "schemaVersion": "1.0.1",
  "updatedAt": "2018-02-11T19:12:46.434Z"
}